:100000000C9435000C945D000C945D000C945D0024
:100010000C945D000C945D000C945D000C945D00EC
:100020000C945D000C945D000C945D000C945D00DC
:100030000C945D000C945D000C945D000C945D00CC
:100040000C94C2010C945D000C9432020C940C02CE
:100050000C945D000C945D000C945D000C945D00AC
:100060000C945D000C945D00640211241FBECFEF60
:10007000D8E0DEBFCDBF11E0A0E0B1E0ECE0F8E0F9
:1000800002C005900D92A631B107D9F721E0A6E193
:10009000B1E001C01D92A03CB207E1F710E0C5E35A
:1000A000D0E004C02197FE010E94FE03C433D107B3
:1000B000C9F70E94D1020C9404040C940000AF9282
:1000C000BF92CF92DF92EF92FF920F931F93CF9345
:1000D000DF936C017B018B01040F151FEB015E01A7
:1000E000AE18BF08C017D10759F06991D601ED913C
:1000F000FC910190F081E02DC6010995892B79F7DB
:10010000C501DF91CF911F910F91FF90EF90DF908C
:10011000CF90BF90AF900895FC01538D448D252F53
:1001200030E0842F90E0821B930B541710F0CF9691
:10013000089501970895FC01918D828D981761F0C3
:10014000A28DAE0FBF2FB11D5D968C91928D9F5FDA
:100150009F73928F90E008958FEF9FEF0895FC01B9
:10016000918D828D981731F0828DE80FF11D858D6C
:1001700090E008958FEF9FEF0895FC01918D228DFF
:10018000892F90E0805C9F4F821B91098F73992784
:1001900008958BE191E00E94BD0021E0892B09F4D4
:1001A00020E0822F089580E090E0892B29F00E94C2
:1001B000C90081110C9400000895FC01A48DA80FC2
:1001C000B92FB11DA35ABF4F2C91848D90E0019699
:1001D0008F739927848FA689B7892C93A089B189B9
:1001E0008C91837080648C93938D848D981306C05A
:1001F0000288F389E02D80818F7D80830895EF92BE
:10020000FF920F931F93CF93DF93EC0181E0888FD0
:100210009B8D8C8D98131AC0E889F989808185FFA0
:1002200015C09FB7F894EE89FF896083E889F98942
:1002300080818370806480839FBF81E090E0DF9144
:10024000CF911F910F91FF90EF900895F62E0B8D97
:1002500010E00F5F1F4F0F731127E02E8C8D8E1152
:100260000CC00FB607FCFACFE889F989808185FFB9
:10027000F5CFCE010E94DD00F1CFEB8DEC0FFD2F0D
:10028000F11DE35AFF4FF0829FB7F8940B8FEA8974
:10029000FB8980818062CFCFCF93DF93EC01888D83
:1002A0008823B9F0AA89BB89E889F9898C9185FDF1
:1002B00003C0808186FD0DC00FB607FCF7CF8C917F
:1002C00085FFF2CF808185FFEDCFCE010E94DD005A
:1002D000E9CFDF91CF910895FC0101900020E9F76B
:1002E0003197AF01481B590BBC018BE191E00C9495
:1002F0005F00CF92DF92EF92FF920F931F93CF9305
:10030000DF93CDB7DEB7A1970FB6F894DEBF0FBE6F
:10031000CDBF282F30E050E040E019A28E010F5DE4
:100320001F4F6B01770FEE08FF08CA01B901A70143
:1003300096010E94DC03605DF80162938F01211534
:1003400031054105510589F73097C9F0CF010E9469
:100350006C018C0182E191E00E946C01800F911F81
:10036000A1960FB6F894DEBF0FBECDBFDF91CF913F
:100370001F910F91FF90EF90DF90CF90089510E0C4
:1003800000E0E8CF1F920F920FB60F9211242F9327
:100390003F938F939F93AF93BF9380911701909159
:1003A0001801A0911901B0911A013091160123E0B2
:1003B000230F2D3758F50196A11DB11D209316016D
:1003C0008093170190931801A0931901B0931A011B
:1003D0008091B8019091B901A091BA01B091BB018F
:1003E0000196A11DB11D8093B8019093B901A0930E
:1003F000BA01B093BB01BF91AF919F918F913F9193
:100400002F910F900FBE0F901F90189526E8230F85
:100410000296A11DB11DD2CF1F920F920FB60F925F
:1004200011242F933F934F935F936F937F938F93F9
:100430009F93AF93BF93EF93FF938BE191E00E9463
:10044000DD00FF91EF91BF91AF919F918F917F91CF
:100450006F915F914F913F912F910F900FBE0F9031
:100460001F9018951F920F920FB60F9211242F9381
:100470008F939F93EF93FF93E0912B01F0912C01C9
:100480008081E0913101F091320182FD1BC09081A9
:10049000809134018F5F8F7320913501821741F075
:1004A000E0913401F0E0E55EFE4F958F80933401DA
:1004B000FF91EF919F918F912F910F900FBE0F9011
:1004C0001F9018958081F4CF10921E0110921D018B
:1004D00088EE93E0A0E0B0E080931F0190932001AC
:1004E000A0932101B093220184E091E090931C013C
:1004F00080931B0185EC90E0909328018093270165
:1005000084EC90E090932A018093290180EC90E0A4
:1005100090932C0180932B0181EC90E090932E011D
:1005200080932D0182EC90E09093300180932F0115
:1005300086EC90E090933201809331011092340167
:100540001092350110923601109237013FB7F8949E
:100550008091B8019091B901A091BA01B091BB010D
:1005600026B5A89B05C02F3F19F00196A11DB11D0E
:100570003FBFBA2FA92F982F8827820F911DA11D49
:10058000B11D42E0880F991FAA1FBB1F4A95D1F7E2
:100590008093BC019093BD01A093BE01B093BF01B5
:1005A0000895789484B5826084BD84B5816084BDEB
:1005B00085B5826085BD85B5816085BD80916E0001
:1005C000816080936E001092810080918100826032
:1005D000809381008091810081608093810080916F
:1005E00080008160809380008091B100846080935E
:1005F000B1008091B00081608093B00080917A005A
:10060000846080937A0080917A00826080937A007F
:1006100080917A00816080937A0080917A0080686E
:1006200080937A001092C100E0912B01F0912C018F
:1006300082E08083E0912701F09128011082E0910F
:100640002901F0912A018FEC808310923301E0910F
:100650002F01F091300186E08083E0912D01F0912F
:100660002E01808180618083E0912D01F0912E0127
:10067000808188608083E0912D01F0912E0180813E
:1006800080688083E0912D01F0912E0180818F7D23
:1006900080831AB889E38BB984B915B8D9E3CC241F
:1006A000C394D12C90E0E92E90E0F92E2FB7F89466
:1006B0008091170190911801A0911901B0911A0130
:1006C0002FBF4091BC015091BD016091BE0170915E
:1006D000BF01841B950BA60BB70B893C9105A105A7
:1006E000B10508F45DC02FB7F8948091170190917F
:1006F0001801A0911901B0911A012FBF8093BC017C
:100700009093BD01A093BE01B093BF0189B162E097
:1007100070E00E947901A9B0AD2610E000E0C0E0D1
:10072000B12CC501002E02C0959587950A94E2F779
:1007300080FF0CC06AE070E0802F0E947901C60142
:10074000002E01C0880F0A94EAF7C82B0F5F1F4FD5
:100750000830110531F762E070E08C2F0E947901BA
:10076000C5B92C2F30E08FEF2115310589F050E00D
:1007700040E0842FB901042E02C0759567950A9454
:10078000E2F760FD05C04F5F5F4F4830510589F7C4
:100790006AE070E00E94790183E191E00E946C01BF
:1007A000E114F10409F482CF0E94C900882309F4FE
:1007B0007DCF0E9400007ACFA1E21A2EAA1BBB1B9C
:1007C000FD010DC0AA1FBB1FEE1FFF1FA217B3071D
:1007D000E407F50720F0A21BB30BE40BF50B661F33
:1007E000771F881F991F1A9469F7609570958095F7
:1007F00090959B01AC01BD01CF010895EE0FFF1F45
:0C0800000590F491E02D0994F894FFCFCE
:10080C0000000000FF005F008C004C01BD009B004D
:06081C00AF000D0A000010
:00000001FF
