:100000000C9462000C948A000C948A000C948A0070
:100010000C948A000C948A000C948A000C948A0038
:100020000C948A000C948A000C948A000C948A0028
:100030000C948A000C948A000C948A000C948A0018
:100040000C94E3020C948A000C9453030C942D033B
:100050000C948A000C948A000C948A000C948A00F8
:100060000C948A000C948A000000000023002600F3
:10007000290000000000240027002A0000000000E2
:10008000250028002B0004040404040404040202D4
:100090000202020203030303030301020408102007
:1000A0004080010204081020010204081020000012
:1000B0000008000201000003040700000000000027
:1000C0000000B60511241FBECFEFD8E0DEBFCDBFC4
:1000D00011E0A0E0B1E0EAE1FCE002C005900D9281
:1000E000AA35B107D9F722E0AAE5B1E001C01D9217
:1000F000A231B207E1F710E0C2E6D0E004C02197D8
:10010000FE010E940506C136D107C9F70E9485038A
:100110000C940B060C940000833081F028F481309D
:1001200099F08230A9F008958730A9F08830C9F09D
:100130008430B1F4809180008F7D03C08091800075
:100140008F7780938000089584B58F7784BD08955C
:1001500084B58F7DFBCF8091B0008F778093B00006
:1001600008958091B0008F7DF9CF1F93CF93DF93D7
:10017000282F30E0F901E255FF4F8491F901E6564E
:10018000FF4FD491F901EA57FF4FC491CC23A9F056
:10019000162F81110E948C00EC2FF0E0EE0FFF1F54
:1001A000E458FF4FA591B4918FB7F894EC911111D9
:1001B00008C0D095DE23DC938FBFDF91CF911F91D4
:1001C0000895DE2BF8CFCF93DF9390E0FC01E65645
:1001D000FF4F24918A579F4FFC0184918823D1F0CF
:1001E00090E0880F991FFC01EE58FF4FA591B49144
:1001F000FC01E458FF4FC591D491623071F49FB770
:10020000F8943C91822F809583238C93E8812E2B48
:1002100028839FBFDF91CF9108958FB7F894EC9119
:100220002E2B2C938FBFF6CFAF92BF92CF92DF923F
:10023000EF92FF920F931F93CF93DF936C017B019B
:100240008B01040F151FEB015E01AE18BF08C0172C
:10025000D10759F06991D601ED91FC910190F0819F
:10026000E02DC6010995892B79F7C501DF91CF9162
:100270001F910F91FF90EF90DF90CF90BF90AF90C4
:100280000895FC01538D448D252F30E0842F90E09C
:10029000821B930B541710F0CF9608950197089581
:1002A000FC01918D828D981761F0A28DAE0FBF2F4A
:1002B000B11D5D968C91928D9F5F9F73928F90E0A0
:1002C00008958FEF9FEF0895FC01918D828D98170F
:1002D00031F0828DE80FF11D858D90E008958FEF4C
:1002E0009FEF0895FC01918D228D892F90E0805C15
:1002F0009F4F821B91098F739927089585E791E09D
:100300000E94720121E0892B09F420E0822F0895D8
:1003100080E090E0892B29F00E947E0181110C94ED
:1003200000000895FC01A48DA80FB92FB11DA35A98
:10033000BF4F2C91848D90E001968F739927848F05
:10034000A689B7892C93A089B1898C918370806428
:100350008C93938D848D981306C00288F389E02DC9
:1003600080818F7D80830895EF92FF920F931F937A
:10037000CF93DF93EC0181E0888F9B8D8C8D981358
:100380001AC0E889F989808185FF15C09FB7F89464
:10039000EE89FF896083E889F989808183708064B0
:1003A00080839FBF81E090E0DF91CF911F910F91FB
:1003B000FF90EF900895F62E0B8D10E00F5F1F4F0A
:1003C0000F731127E02E8C8D8E110CC00FB607FC19
:1003D000FACFE889F989808185FFF5CFCE010E94A7
:1003E0009201F1CFEB8DEC0FFD2FF11DE35AFF4F82
:1003F000F0829FB7F8940B8FEA89FB898081806235
:10040000CFCFCF93DF93EC01888D8823B9F0AA89F1
:10041000BB89E889F9898C9185FD03C0808186FDBF
:100420000DC00FB607FCF7CF8C9185FFF2CF80810E
:1004300085FFEDCFCE010E949201E9CFDF91CF91F0
:100440000895FC0101900020E9F73197AF01481BA6
:10045000590BBC0185E791E00C9414018F929F9297
:10046000AF92BF920F931F93CF93DF93CDB7DEB7B9
:10047000A1970FB6F894DEBF0FBECDBF19A24230D0
:1004800008F44AE08E010F5D1F4F842E912CB12C91
:10049000A12CA50194010E94E305E62FB901CA0130
:1004A000EA30F4F4E05DD801EE938D01232B242B88
:1004B000252B79F790E080E0109719F0CD010E948C
:1004C0002102A1960FB6F894DEBF0FBECDBFDF911B
:1004D000CF911F910F91BF90AF909F908F900895F3
:1004E000E95CE1CFCF93DF930E942102EC0184E12C
:1004F00091E00E9421028C0F9D1FDF91CF91089502
:10050000CF92DF92EF92FF92CF93DF93EC016A01DB
:100510007B0190936A01809369012FB7F8948091D1
:10052000710190917201A0917301B09174012FBF7C
:100530008093650190936601A0936701B093680171
:10054000C0926101D0926201E0926301F092640175
:1005500060E08DE00E94B50060E08CE00E94B50094
:1005600060E08BE00E94B500C130D10531F100F1AF
:10057000C230D10529F187E191E00E942102BE013C
:1005800090E080E04AE00E942E028BE191E00E9420
:1005900021024AE0C701B6010E942E0284E191E0E7
:1005A000DF91CF91FF90EF90DF90CF900C942102DC
:1005B00061E08BE00E94B500DECF61E08CE0FACF15
:1005C00061E08DE0F7CF1F920F920FB60F921124CA
:1005D0002F933F938F939F93AF93BF93809171011C
:1005E00090917201A0917301B091740130917001EA
:1005F00023E0230F2D3758F50196A11DB11D20933F
:1006000070018093710190937201A0937301B09374
:10061000740180916C0190916D01A0916E01B09177
:100620006F010196A11DB11D80936C0190936D0126
:10063000A0936E01B0936F01BF91AF919F918F9185
:100640003F912F910F900FBE0F901F90189526E8A5
:10065000230F0296A11DB11DD2CF1F920F920FB68C
:100660000F9211242F933F934F935F936F937F9338
:100670008F939F93AF93BF93EF93FF9385E791E0A1
:100680000E949201FF91EF91BF91AF919F918F9145
:100690007F916F915F914F913F912F910F900FBE7E
:1006A0000F901F9018951F920F920FB60F92112462
:1006B0002F938F939F93EF93FF93E0918501F09198
:1006C00086018081E0918B01F0918C0182FD1BC03D
:1006D000908180918E018F5F8F7320918F0182179F
:1006E00041F0E0918E01F0E0EB58FE4F958F809342
:1006F0008E01FF91EF919F918F912F910F900FBEDF
:100700000F901F9018958081F4CF789484B5826003
:1007100084BD84B5816084BD85B5826085BD85B5A5
:10072000816085BD80916E00816080936E00109223
:10073000810080918100826080938100809181009E
:10074000816080938100809180008160809380002F
:100750008091B10084608093B1008091B00081608D
:100760008093B00080917A00846080937A008091B9
:100770007A00826080937A0080917A008160809311
:100780007A0080917A00806880937A001092C1008C
:1007900061E08DE00E94E30061E08CE00E94E300F4
:1007A00061E08BE00E94E30062E082E00E94E300EF
:1007B000E0918501F091860182E08083E0918101E2
:1007C000F09182011082E0918301F091840180E137
:1007D000808310928D01E0918901F0918A0186E079
:1007E0008083E0918701F09188018081806180831E
:1007F000E0918701F0918801808188608083E09199
:100800008701F0918801808180688083E091870171
:10081000F091880180818F7D808340E157E260E024
:1008200070E090E080E00E948002C0EBD0E02CE914
:10083000222E20E0322E38E8E32E30E0F32EAA24D8
:10084000A3949924939490E0C92E90E0D92EFE01B0
:100850008491F101B490F7018490882009F49CC040
:1008600081110E948C00E82DF0E0EE0FFF1FE85987
:10087000FF4FA591B4918C91B82231E020E009F4AA
:1008800030E0832F922F2FB7F8944091710150914F
:10089000720160917301709174012FBF209100016A
:1008A000309101012817390751F140905A015090B9
:1008B0005B0160905C0170905D018A019B010419ED
:1008C0001509260937092801390113E34116510496
:1008D00061047104A0F040935A0150935B0160934E
:1008E0005C0170935D019093010180930001892B5D
:1008F00031F49092600181E291E00E94720285E7FA
:1009000091E00E947201892B69F085E791E00E94D5
:100910005001853609F043C090926B018BE291E063
:100920000E94720280916B01882371F080916901AD
:1009300090916A01039741F044EF51E060E070E06C
:1009400083E090E00E9480022FB7F89480917101BB
:1009500090917201A0917301B09174012FBF209109
:10096000690130916A012130310509F44CC048F128
:100970002230310509F472C02330310509F49AC0E0
:10098000C114D10409F463CF0E947E01882309F4C5
:100990005ECF0E94000057CF90E080E074CF813797
:1009A00029F410926B018AE391E0BACF8E3609F0F8
:1009B000B9CF80915F018A2580935F018AE491E03D
:1009C000AFCF4091650150916601609167017091D0
:1009D0006801841B950BA60BB70B409161015091E8
:1009E0006201609163017091640184179507A60705
:1009F000B70730F248EB5BE060E070E081E090E048
:100A00000E948002BDCF40916501509166016091C6
:100A1000670170916801841B950BA60BB70B409181
:100A200061015091620160916301709164018417CA
:100A30009507A607B70708F4A3CF8091600140E1AE
:100A400057E260E070E0882321F048E95AE360E073
:100A500070E01092600182E090E0D2CF4091650199
:100A6000509166016091670170916801841B950B3C
:100A7000A60BB70B40916101509162016091630137
:100A80007091640184179507A607B70708F478CF1B
:100A900080915F01882339F048EE53E060E070E018
:100AA00083E090E0ADCF40E157E260E070E090E09D
:100AB00080E0A6CF40916501509166016091670189
:100AC000709168012C013D01441A550A660A770AA3
:100AD00040916101509162016091630170916401E4
:100AE0004416550666067706C8F080936501909314
:100AF0006601A0936701B0936801B0905E01BA24CB
:100B0000B0925E0160E08DE00E94B50060E08BE095
:100B10000E94B5006B2D8CE00E94B50080916B01A6
:100B200081110CC080915F01811108C040E157E242
:100B300060E070E090E080E00E94800280916B01B4
:100B400081111ECF80915F01882309F419CF809114
:100B5000610190916201A0916301B0916401883EAE
:100B60009340A105B10509F097CF0ACFE5E7F1E081
:100B70001382128288EE93E0A0E0B0E08483958334
:100B8000A683B78386E091E09183808385EC90E033
:100B90009587848784EC90E09787868780EC90E047
:100BA000918B808B81EC90E0938B828B82EC90E038
:100BB000958B848B86EC90E0978B868B118E128EB2
:100BC000138E148E0895A1E21A2EAA1BBB1BFD01E1
:100BD0000DC0AA1FBB1FEE1FFF1FA217B307E4071C
:100BE000F50720F0A21BB30BE40BF50B661F771F74
:100BF000881F991F1A9469F7609570958095909554
:100C00009B01AC01BD01CF010895EE0FFF1F0590C0
:0A0C1000F491E02D0994F894FFCF51
:100C1A00010000000000B401140141010102720147
:100C2A00500164010D0A002D3E200020666F7220DB
:100C3A0000455F5045445F52455100455F454D456B
:100C4A005247454E43595F4F4E00455F454D455209
:100C5A0047454E43595F4F464600455F4E49474810
:0A0C6A00545F544F47474C4500000B
:00000001FF
