:100000000C9462000C948A000C948A000C948A0070
:100010000C948A000C948A000C948A000C948A0038
:100020000C948A000C948A000C948A000C948A0028
:100030000C948A000C948A000C948A000C948A0018
:100040000C945E030C948A000C94CE030C94A803C9
:100050000C948A000C948A000C948A000C948A00F8
:100060000C948A000C948A000000000023002600F3
:10007000290000000000240027002A0000000000E2
:10008000250028002B0004040404040404040202D4
:100090000202020203030303030301020408102007
:1000A0004080010204081020010204081020000012
:1000B0000008000201000003040700000000000027
:1000C0000000D50511241FBECFEFD8E0DEBFCDBFA5
:1000D00011E0A0E0B1E0E8E5FCE002C005900D927F
:1000E000AE3CB107D9F722E0AEECB1E001C01D9201
:1000F000A63BB207E1F710E0C2E6D0E004C02197CA
:10010000FE010E942406C136D107C9F70E940004EF
:100110000C942A060C940000833081F028F481307E
:1001200099F08230A9F008958730A9F08830C9F09D
:100130008430B1F4809180008F7D03C08091800075
:100140008F7780938000089584B58F7784BD08955C
:1001500084B58F7DFBCF8091B0008F778093B00006
:1001600008958091B0008F7DF9CF1F93CF93DF93D7
:10017000282F30E0F901E255FF4F8491F901E6564E
:10018000FF4FD491F901EA57FF4FC491CC23A9F056
:10019000162F81110E948C00EC2FF0E0EE0FFF1F54
:1001A000E458FF4FA591B4918FB7F894EC911111D9
:1001B00008C0D095DE23DC938FBFDF91CF911F91D4
:1001C0000895DE2BF8CFCF93DF9390E0FC01E65645
:1001D000FF4F24918A579F4FFC0184918823D1F0CF
:1001E00090E0880F991FFC01EE58FF4FA591B49144
:1001F000FC01E458FF4FC591D491623071F49FB770
:10020000F8943C91822F809583238C93E8812E2B48
:1002100028839FBFDF91CF9108958FB7F894EC9119
:100220002E2B2C938FBFF6CFAF92BF92CF92DF923F
:10023000EF92FF920F931F93CF93DF936C017B019B
:100240008B01040F151FEB015E01AE18BF08C0172C
:10025000D10759F06991D601ED91FC910190F0819F
:10026000E02DC6010995892B79F7C501DF91CF9162
:100270001F910F91FF90EF90DF90CF90BF90AF90C4
:100280000895FC01538D448D252F30E0842F90E09C
:10029000821B930B541710F0CF9608950197089581
:1002A000FC01918D828D981761F0A28DAE0FBF2F4A
:1002B000B11D5D968C91928D9F5F9F73928F90E0A0
:1002C00008958FEF9FEF0895FC01918D828D98170F
:1002D00031F0828DE80FF11D858D90E008958FEF4C
:1002E0009FEF0895FC01918D228D892F90E0805C15
:1002F0009F4F821B91098F739927089589E192E09E
:100300000E94720121E0892B09F420E0822F0895D8
:1003100080E090E0892B29F00E947E0181110C94ED
:1003200000000895FC01A48DA80FB92FB11DA35A98
:10033000BF4F2C91848D90E001968F739927848F05
:10034000A689B7892C93A089B1898C918370806428
:100350008C93938D848D981306C00288F389E02DC9
:1003600080818F7D80830895EF92FF920F931F937A
:10037000CF93DF93EC0181E0888F9B8D8C8D981358
:100380001AC0E889F989808185FF15C09FB7F89464
:10039000EE89FF896083E889F989808183708064B0
:1003A00080839FBF81E090E0DF91CF911F910F91FB
:1003B000FF90EF900895F62E0B8D10E00F5F1F4F0A
:1003C0000F731127E02E8C8D8E110CC00FB607FC19
:1003D000FACFE889F989808185FFF5CFCE010E94A7
:1003E0009201F1CFEB8DEC0FFD2FF11DE35AFF4F82
:1003F000F0829FB7F8940B8FEA89FB898081806235
:10040000CFCFCF93DF93EC01888D8823B9F0AA89F1
:10041000BB89E889F9898C9185FD03C0808186FDBF
:100420000DC00FB607FCF7CF8C9185FFF2CF80810E
:1004300085FFEDCFCE010E949201E9CFDF91CF91F0
:100440000895FC0101900020E9F73197AF01481BA6
:10045000590BBC0189E192E00C9414018F929F9298
:10046000AF92BF920F931F93CF93DF93CDB7DEB7B9
:10047000A1970FB6F894DEBF0FBECDBF19A24230D0
:1004800008F44AE08E010F5D1F4F842E912CB12C91
:10049000A12CA50194010E940206E62FB901CA0110
:1004A000EA30F4F4E05DD801EE938D01232B242B88
:1004B000252B79F790E080E0109719F0CD010E948C
:1004C0002102A1960FB6F894DEBF0FBECDBFDF911B
:1004D000CF911F910F91BF90AF909F908F900895F3
:1004E000E95CE1CFCF93DF930E942102EC0184E12C
:1004F00091E00E9421028C0F9D1FDF91CF91089502
:1005000081E08093CF0187E191E00C947202CF9259
:10051000DF92EF92FF92CF93DF93EC016A017B01B0
:1005200090930F0280930E02C092D601D092D70111
:10053000E092D801F092D9012FB7F894809115027A
:1005400090911602A0911702B09118022FBF8093CC
:10055000DA019093DB01A093DC01B093DD0160E050
:100560008DE00E94B50060E08CE00E94B50060E084
:100570008BE00E94B50061E08BE0209751F061E0D4
:100580008CE0C130D10529F0C230D10521F461E001
:100590008DE00E94B50082E291E00E942102BE013E
:1005A00090E080E04AE00E942E0286E291E00E9404
:1005B00021024AE0C701B6010E942E0284E191E0C7
:1005C0000E94210289E791E0C230D10559F08EE9FD
:1005D00091E0C330D10531F08CE291E0219711F424
:1005E00083E591E0DF91CF91FF90EF90DF90CF9086
:1005F0000C94720248EB5BE060E070E081E090E018
:100600000C9487028091CF0140E157E260E070E0F6
:10061000882321F048E95AE360E070E01092CF01AE
:1006200082E090E00C94870244EF51E060E070E0DB
:1006300083E090E00C9487028091CE0191E08927BD
:100640008093CE01882341F048EE53E060E070E0F3
:1006500083E090E00C9487028091D001811107C063
:1006600040E157E260E070E090E080E0F3CF089571
:100670008091CE01811108C040E157E260E070E056
:1006800090E080E00C94870248EE53E060E070E078
:1006900083E090E0F7CF8091CE01882341F048EECF
:1006A00053E060E070E083E090E00C94870240E16A
:1006B00057E260E070E090E080E0F7CF1F920F9289
:1006C0000FB60F9211242F933F938F939F93AF9365
:1006D000BF938091150290911602A0911702B091DC
:1006E00018023091140223E0230F2D3758F501969C
:1006F000A11DB11D20931402809315029093160240
:10070000A0931702B09318028091100290911102E9
:10071000A0911202B09113020196A11DB11D809308
:10072000100290931102A0931202B0931302BF9192
:10073000AF919F918F913F912F910F900FBE0F908E
:100740001F90189526E8230F0296A11DB11DD2CF48
:100750001F920F920FB60F9211242F933F934F9336
:100760005F936F937F938F939F93AF93BF93EF9319
:10077000FF9389E192E00E949201FF91EF91BF9176
:10078000AF919F918F917F916F915F914F913F9129
:100790002F910F900FBE0F901F9018951F920F92E0
:1007A0000FB60F9211242F938F939F93EF93FF9384
:1007B000E0912902F0912A028081E0912F02F091CC
:1007C000300282FD1BC09081809132028F5F8F7357
:1007D00020913302821741F0E0913202F0E0E75EAF
:1007E000FD4F958F80933202FF91EF919F918F91F2
:1007F0002F910F900FBE0F901F9018958081F4CF0E
:10080000789484B5826084BD84B5816084BD85B5EB
:10081000826085BD85B5816085BD80916E008160F7
:1008200080936E001092810080918100826080939D
:10083000810080918100816080938100809180009F
:100840008160809380008091B10084608093B100CA
:100850008091B00081608093B00080917A008460C4
:1008600080937A0080917A00826080937A008091F0
:100870007A00816080937A0080917A00806880930A
:100880007A001092C10061E08DE00E94E30061E017
:100890008CE00E94E30061E08BE00E94E30062E0F4
:1008A00082E00E94E300E0912902F0912A0282E0B6
:1008B0008083E0912502F09126021082E0912702C8
:1008C000F091280280E1808310923102E0912D02A4
:1008D000F0912E0286E08083E0912B02F0912C02B1
:1008E000808180618083E0912B02F0912C028081D5
:1008F00088608083E0912B02F0912C0280818068D7
:100900008083E0912B02F0912C0280818F7D808387
:10091000AEEDB1E08EE092E0FD0111821082138213
:10092000128215821482178216821186108613860F
:1009300012863C968E179F0781F78AEF92E090937C
:10094000E1018093E00182E093E09093ED018093D8
:10095000EC018BE493E09093F9018093F80180E837
:1009600092E09093E3018093E20144E153E028E3B5
:1009700033E08CE193E017965C934E9316971996AB
:100980003C932E9318971B969C938E931A971C96C4
:10099000EA17FB0781F740E157E260E070E090E082
:1009A00080E00E948702C0EBD0E00CE910E028E86C
:1009B000E22E20E0F22E36E0632E40E0C42E40E02E
:1009C000D42E77247394FE018491F801B490F7013A
:1009D000A490AA2009F495C081110E948C00EA2DF0
:1009E000F0E0EE0FFF1FE859FF4FA591B4918C91F5
:1009F000B82231E020E009F430E0832F922F2FB7A6
:100A0000F8948090150290901602A0901702B09072
:100A100018022FBF209100013091010128173907DA
:100A200009F072C089E192E00E947201892B09F4F9
:100A300093C089E192E00E945001853609F0A9C077
:100A40007092D00183E090E020910E0230910F026D
:100A5000629EF001639EF00D1124E80FF91FEE0F66
:100A6000FF1FE252FE4F0190F081E02D309709F018
:100A7000099580910E0290910F020397B1F52FB75F
:100A8000F8948091150290911602A0911702B091EE
:100A900018022FBF4091DA015091DB016091DC0117
:100AA0007091DD014C015D01841A950AA60AB70A0E
:100AB0004091D6015091D7016091D8017091D90130
:100AC00084169506A606B70680F08093DA01909307
:100AD000DB01A093DC01B093DD016091D5016725B6
:100AE0006093D5018CE00E94B500C114D10409F4D3
:100AF0006ACF0E947E01882309F463CF0E94000020
:100B000060CF90E080E07BCF4091D1015091D20145
:100B10006091D3017091D40114012501241A350A82
:100B2000460A570AB201A101433351056105710517
:100B300008F478CF8092D1019092D201A092D30193
:100B4000B092D4019093010180930001892B09F0A8
:100B500069CF82E090E078CF8091DA019091DB015B
:100B6000A091DC01B091DD01881A990AAA0ABB0A9A
:100B70008091D6019091D701A091D801B091D9016F
:100B800088169906AA06BB0608F473CF81E090E0A8
:100B90005BCF813729F41092D00184E090E054CFEC
:100BA0008E36D1F685E090E04FCFE9E1F2E0138296
:100BB000128288EE93E0A0E0B0E084839583A68360
:100BC000B78386E091E09183808385EC90E0958700
:100BD000848784EC90E09787868780EC90E0918B07
:100BE000808B81EC90E0938B828B82EC90E0958BF4
:100BF000848B86EC90E0978B868B118E128E138EF1
:100C0000148E0895A1E21A2EAA1BBB1BFD010DC074
:100C1000AA1FBB1FEE1FFF1FA217B307E407F507AC
:100C200020F0A21BB30BE40BF50B661F771F881F88
:100C3000991F1A9469F760957095809590959B011E
:100C4000AC01BD01CF010895EE0FFF1F0590F49197
:080C5000E02D0994F894FFCF98
:100C5800010000000000B401140141010102720109
:100C6800500164010D0A0070656420717565756531
:100C780064002D3E200020666F72200053544154BA
:100C8800453A20475245454E2028D0B7D0B5D0BB6D
:100C9800D0B5D0BDD18BD0B920D181D0B2D0B5D10B
:100CA80082290053544154453A2059454C4C4F57DA
:100CB8002028D0B6D0B5D0BBD182D18BD0B920D125
:100CC80081D0B2D0B5D182290053544154453A203D
:100CD8005245442028D0BAD180D0B0D181D0BDD1DE
:100CE8008BD0B920D181D0B2D0B5D182290053544C
:100CF8004154453A205741524E494E472028D0BCCE
:100D0800D0B8D0B3D0B0D18ED189D0B8D0B920D096
:0E0D1800B6D0B5D0BBD182D18BD0B9290000A6
:00000001FF
